S00C00004C6162372E73726563D2
S11300000C94FE000C9416010C9416010C94160129
S11300100C9416010C9416010C9416010C94160100
S11300200C9416010C9416010C9416010C941601F0
S11300300C9416010C9416010C9416010C941601E0
S11300400C9416010C9416010C9416010C941601D0
S11300500C9416010C9416010C9416010C941601C0
S11300600C9416010C9416010C9416010C941601B0
S11300700C9416010C9416010C9416010C941601A0
S11300800C9416010C9416010C9416010C94160190
S11300900C9416010C9416010C9416010C94160180
S11300A00C9416010C9416010C9416010C94160170
S11300B00C9416010C9416010C9416010C94160160
S11300C00C9416010C9416010C9416010C94160150
S11300D00C9416010C9416010C9416010C94160140
S11300E00C9416010C9416010C9416010C94160130
S11300F00C9416010C9416010C9416010C94160120
S11301000C9416010C9416010C9416010C9416010F
S11301100C9416010C9416010C9416010C945701BE
S11301200C9416010C9416010C9416010C941601EF
S11301300C9416010C9416010C9416010C941601DF
S11301400C9416010C9416010C9416010C941601CF
S11301500C9416010C9416010C9416010C941601BF
S11301600C949F010C9416010C9416010C94160126
S11301700C9416010C9416010C9416010C9416019F
S11301800C9416010C9416010C9416010C9416018F
S11301900C9416010C9416010C9416010C9416017F
S11301A00C9416010C9416010C9416010C9416016F
S11301B00C9416010C9416010C9416010C9416015F
S11301C00C9416010C9416010C9416010C9416014F
S11301D00C9416010C9416010C9416010C9416013F
S11301E00C9416010C9416010C9416010C9416012F
S11301F00C9416010C9416010C94160111241FBEC4
S1130200CFEFCDBFDFE3DEBF00E00CBF18BE19BEE9
S11302101ABE1BBE20E2A0E0B0E201C01D92A630CF
S1130220B207E1F70E9418010C9484020C940000B8
S1130230CF93DF9300D01F92CDB7DEB719820E940F
S113024000020E9435020E944E02809104208823FD
S1130250E1F310920420809105208823A1F080917D
S11302600220909103208A838091022090910320A0
S1130270892F990F990B89838A810E94E5018981CD
S11302800E94E501E2CF80910020909101208B83B0
S11302908091002090910120892F990F990B8C83D4
S11302A08B810E94E5018C810E94E501CECF1F92D3
S11302B00F9200903F000F921124009038000F928B
S11302C01092380000903A000F9210923A00009079
S11302D03B000F9210923B008F939F93EF93FF93F9
S11302E0CF93DF93CDB7DEB781E08093042080E025
S11302F092E0FC01808991898093002090930120F1
S113030080E092E0FC01828993898093022090939B
S113031003200000DF91CF91FF91EF919F918F9186
S11303200F9000923B000F9000923A000F900092C1
S113033038000F9000923F000F901F9018951F9265
S11303400F9200903F000F921124009038000F92FA
S11303501092380000903A000F9210923A000090E8
S11303603B000F9210923B008F939F93EF93FF9368
S1130370CF93DF931F92CDB7DEB780EA99E0FC01FB
S11303808081898389818C3419F41092052006C0F8
S11303908981863419F481E08093052000000F9050
S11303A0DF91CF91FF91EF919F918F910F900092E8
S11303B03B000F9000923A000F90009238000F908B
S11303C000923F000F901F901895CF93DF931F92D8
S11303D0CDB7DEB78983000080EA99E0FC01818112
S11303E0882F90E080729927892BB1F380EA99E0F5
S11303F02981FC01208300000F90DF91CF910895A3
S1130400CF93DF93CDB7DEB780E092E020E1FC012B
S1130410218380E092E020E3FC01228380E092E0EB
S11304202AE0FC0121A380E092E023E0FC0120A368
S113043080E092E022E0FC0122A380E092E028E246
S1130440FC0121A780E092E023E0FC0120A780E0EA
S113045092E025E4FC01238380E092E021E0FC01AA
S113046020830000DF91CF910895CF93DF93CDB720
S1130470DEB780E098E027E039E3FC0126A337A348
S113048080E098E021E0FC01208380E891E020EC0A
S1130490FC0120830000DF91CF910895CF93DF9377
S11304A0CDB7DEB780E696E028E0FC01258380E640
S11304B096E028E0FC01218380E696E024E0FC013C
S11304C0228380EA99E021E0FC01268380EA99E016
S11304D020ECFC01278380EA99E023E3FC012583D7
S11304E080EA99E028E1FC01248380EA99E020E392
S11304F0FC01238380EA90E026E0FC0122837894C7
S10F05000000DF91CF910895F894FFCF24
S9030000FC
