S00B00004857342E7372656346
S11300000C94FE000C940E010C940E010C940E0141
S11300100C940E010C940E010C940E010C940E0120
S11300200C940E010C940E010C940E010C940E0110
S11300300C940E010C940E010C940E010C940E0100
S11300400C940E010C940E010C940E010C940E01F0
S11300500C940E010C940E010C940E010C940E01E0
S11300600C940E010C940E010C940E010C940E01D0
S11300700C940E010C940E010C940E010C940E01C0
S11300800C940E010C940E010C940E010C940E01B0
S11300900C940E010C940E010C940E010C940E01A0
S11300A00C940E010C940E010C940E010C940E0190
S11300B00C940E010C940E010C940E010C940E0180
S11300C00C940E010C940E010C940E010C940E0170
S11300D00C940E010C940E010C940E010C940E0160
S11300E00C940E010C940E010C940E010C940E0150
S11300F00C940E010C940E010C940E010C940E0140
S11301000C940E010C940E010C940E010C940E012F
S11301100C940E010C940E010C940E010C940E011F
S11301200C940E010C940E010C940E010C940E010F
S11301300C940E010C940E010C940E010C940E01FF
S11301400C940E010C940E010C940E010C940E01EF
S11301500C940E010C940E010C940E010C940E01DF
S11301600C940E010C940E010C940E010C940E01CF
S11301700C940E010C940E010C940E010C940E01BF
S11301800C940E010C940E010C940E010C940E01AF
S11301900C940E010C940E010C940E010C940E019F
S11301A00C940E010C940E010C940E010C940E018F
S11301B00C940E010C940E010C940E010C940E017F
S11301C00C940E010C940E010C940E010C940E016F
S11301D00C940E010C940E010C940E010C940E015F
S11301E00C940E010C940E010C940E010C940E014F
S11301F00C940E010C940E010C940E0111241FBEDC
S1130200CFEFCDBFDFE3DEBF00E00CBF18BE19BEE9
S11302101ABE1BBE0E9426010C9437010C940000E8
S11302208F9382E0809350008091510081FFFCCF36
S113023088ED8093340081E08093400088ED8093C2
S1130240340080E0809341008F910895CF93DF9331
S1130250CDB7DEB70E94100184EB90E021E0FC01F1
S1130260208381E496E020E8FC012083FFCFF8940A
S1050270FFCFBA
S9030000FC
