:020000020000FC
:02000000FFC13E
:0201A00075C127
:020038003BC2C9
:100400000FEF00933D000FE300933D000FEF0093CB
:10041000410600E4009350060093510600935206F3
:100420000093530600935406009355060093560616
:10043000009357060093460600E2009361060E946F
:10044000250220E220936706FCCF00913F000F9326
:1004500008E00093A20608E00093AA0602E00093D9
:10046000A90602E00093B30604E20093260807EC15
:100470000093270803E00093060810E002E00093D1
:10048000A2000F9100933F007894089500913F00DF
:100490000F930091AC060D7F0093AC0604E000932F
:1004A000A20004E0009300080F9100933F0018950C
:1004B00000913F000F9304E00093A20040E04093BE
:1004C000000801E000930C0800E00093200800936E
:1004D00021080091A80603FD03C01395109344065C
:1004E0000091AC060E7F0093AC0602E00093A200E0
:0804F0000F9100933F001895E5
:00000001FF
