S00C00004C6162382E73726563D1
S11300000C9462010C9488010C9488010C9488016E
S11300100C9488010C9488010C9488010C94880138
S11300200C9488010C9488010C9488010C94880128
S11300300C9488010C9488010C9488010C94880118
S11300400C9488010C9488010C9488010C94880108
S11300500C9488010C9488010C9488010C948801F8
S11300600C9488010C9488010C9488010C948801E8
S11300700C9488010C9488010C9488010C948801D8
S11300800C9488010C9488010C9488010C948801C8
S11300900C9488010C9488010C9488010C948801B8
S11300A00C9488010C9488010C9488010C948801A8
S11300B00C9488010C9488010C9488010C94880198
S11300C00C9488010C9488010C9488010C94880188
S11300D00C9488010C9488010C9488010C94880178
S11300E00C9488010C9488010C9488010C94880168
S11300F00C9488010C9488010C9488010C94880158
S11301000C9488010C9488010C9488010C94880147
S11301100C9488010C9488010C9488010C94880137
S11301200C9488010C9488010C9488010C94880127
S11301300C9488010C9488010C9488010C94880117
S11301400C9488010C9488010C9488010C94880107
S11301500C9488010C9488010C9488010C948801F7
S11301600C9488010C9488010C9488010C948801E7
S11301700C9488010C9488010C9488010C948801D7
S11301800C9488010C9488010C9488010C948801C7
S11301900C9488010C9488010C9488010C948801B7
S11301A00C9488010C9488010C9488010C948801A7
S11301B00C9488010C9488010C9488010C94880197
S11301C00C9488010C9488010C9488010C94880187
S11301D00C9488010C9488010C9488010C94880177
S11301E00C9488010C9488010C9488010C94880167
S11301F00C9488010C9488010C94880148026202D2
S1130200E4028902A302BD02E402E402E402E4027D
S1130210E402E402E402E402E402E402E402E402AA
S1130220E402E402E402E402E402E402E402E4029A
S1130230E402E402E402E402E402E402E402E4028A
S1130240E402E402E402E402E402E402E402E4027A
S1130250E402E402E402E402E402E402E4023B0213
S1130260E402E402E402B002E402E402E402E4028E
S1130270E402CA02D702E4025502EB016F029602BD
S1130280E402E402E4027C020C94E4020C94CA0248
S11302900C9455020C9496020C94D7020C94B00260
S11302A00C9448020C946F020C943B020C94A3022D
S11302B00C9462020C94BD020C94EB010C947C022D
S11302C00C94890211241FBECFEFCDBFDFE3DEBF44
S11302D000E00CBF18BE19BE1ABE1BBE16E2A0E099
S11302E0B0E2EEE9FAE000E00BBF02C007900D9225
S11302F0A830B107D9F71BBE26E2A8E0B6E201C0D8
S11303001D92A930B207E1F70E94A0010C944D059B
S11303100C9400008F9382E08093500080915100F0
S113032081FFFCCF88ED8093340081E0809340000E
S113033088ED8093340080E0809341008F9108958C
S11303400F931F93CF93DF9300D01F92CDB7DEB7E7
S11303500E948A010E943A030E945E030E94BA032B
S11303600E94510380E496E020E8FC01258380E4A8
S113037096E020E8FC0121838FEF9FEF809306260F
S11303809093072681E080930526000080EA99E097
S1130390FC0181818823D4F780EA99E0FC01808103
S11303A08093082680910826882F90E0092E000C5F
S11303B0AA0BBB0B44E350E025E430E0841B950B0F
S11303C02817390708F400C1FC018827E250FF4FC1
S11303D08F4F0C9444059091042681E0992309F0F1
S11303E080E08093042680910426882309F11982F1
S11303F01A8217C089819A81880F991F8050904E64
S1130400FC012081318189819A81880F991F805054
S11304109C4DFC012083318389819A8101968983D3
S11304209A8389819A818F3F910521F31CF320C01F
S11304301B821C8217C08B819C81880F991F80505E
S11304409E4DFC01208131818B819C81880F991FF5
S113045080509C4DFC01208331838B819C810196CB
S11304608B839C838B819C818F3F910521F31CF3AB
S113047010920526ABC080E090EDA2E8B4E480932E
S1130480002690930126A0930226B09303269EC0D3
S11304908CE597E9AAE8B4E48093002690930126BA
S11304A0A0930226B093032691C08FE195EDA2E9B3
S11304B0B4E48093002690930126A0930226B0937F
S11304C0032684C082E590E9ABE9B4E48093002676
S11304D090930126A0930226B093032677C082E569
S11304E090EDA4EAB4E48093002690930126A093AF
S11304F00226B09303266AC08FE19DE9AEEAB4E414
S11305008093002690930126A0930226B09303269D
S11305105DC089E29CEFA8EBB4E48093002690933D
S11305200126A0930226B093032650C08CE59FEFCA
S1130530A3ECB4E48093002690930126A0930226B2
S1130540B093032643C08AE097EAAFECB4E4809307
S1130550002690930126A0930226B093032636C06A
S113056080E090E0ACEDB4E4809300269093012603
S1130570A0930226B093032629C08FE195E1A9EE4A
S1130580B4E48093002690930126A0930226B093AE
S113059003261CC086EF90EFA6EFB4E480930026F8
S11305A090930126A0930226B09303260FC080E007
S11305B090EDA2E0B5E48093002690930126A093E9
S11305C00226B093032602C01092052680910526C8
S11305D0882329F480E098E0FC01108240C000E008
S11305E018E08091002690910126A0910226B091F6
S11305F0032620E030E040E853E4BC01CD010E9432
S1130600D704DC01CB019C01AD0160E074E284EF0E
S11306109BE40E94E503DC01CB01BC01CD010E94F7
S11306205704DC01CB01F80186A397A380E098E08E
S113063021E0FC01208313C080E098E0FC01848564
S1130640882F90E081709927892B49F080910626A4
S11306509091072601978093062690930726809110
S1130660062690910726892B39F780E098E0FC0153
S1130670108282CECF93DF93CDB7DEB780E093E0D4
S113068020E2FC01218380E093E028E1FC01228345
S113069080E093E029E0FC0120830000DF91CF910A
S11306A00895CF93DF93CDB7DEB780E891E020ECD7
S11306B0FC0120830000DF91CF910895CF93DF9355
S11306C0CDB7DEB780E091E020E031E0F901208190
S11306D02064FC01208380E091E029E5FC01228B69
S11306E080E091E021E0FC01238B80E091E020E0B8
S11306F032E0FC01248B358B80E091E0FC01168A0A
S113070080E091E020E034E2FC01208F80E091E081
S113071020E034E2232F3327FC01218F20E031E055
S113072080E094E2CC01A0E0B0E0CD01AA27BB2791
S1130730F901828F80E091E02AE1FC01248F80E0BE
S113074091E023E0FC01258F80E091E0FC01168E0E
S113075080E091E025EAFC01208B80E091E020E03C
S113076031E0F90120812068FC0120830000DF9141
S1130770CF910895CF93DF93CDB7DEB780E696E0AF
S113078028E0FC01258380E696E028E0FC01218333
S113079080E696E024E0FC01228380EA99E024E6E6
S11307A0FC01268380EA99E02DE9FC01278380EA95
S11307B099E023E3FC01258380EA99E028E1FC0128
S11307C024830000DF91CF9108950E94F9030C94D3
S11307D09D040E94960458F00E948F0440F029F46E
S11307E05F3F29F00C94860451110C94D1040C94AD
S11307F08C040E94AE0468F39923B1F3552391F35A
S1130800951B550BBB27AA2762177307840738F07B
S11308109F5F5F4F220F331F441FAA1FA9F335D0D8
S11308200E2E3AF0E0E832D091505040E695001C8C
S1130830CAF72BD0FE2F29D0660F771F881FBB1F46
S1130840261737074807AB07B0E809F0BB0B802D24
S1130850BF01FF2793585F4F3AF09E3F510578F050
S11308600C9486040C94D1045F3FE4F3983ED4F3D3
S1130870869577956795B795F7959F5FC9F7880F24
S1130880911D9695879597F90895E1E0660F771F76
S1130890881FBB1F621773078407BA0720F0621B07
S11308A0730B840BBA0BEE1F88F7E09508950E9432
S11308B0B60488F09F5798F0B92F9927B751B0F034
S11308C0E1F0660F771F881F991F1AF0BA95C9F7D0
S11308D014C0B13091F00E94D004B1E008950C949A
S11308E0D004672F782F8827B85F39F0B93FCCF34D
S11308F0869577956795B395D9F73EF4909580954D
S1130900709561957F4F8F4F9F4F089597F99F671B
S113091080E870E060E008959FEF80EC0895002483
S11309200A941616170618060906089500240A9450
S113093012161306140605060895092E0394000CD6
S113094011F4882352F0BB0F40F4BF2B11F460FF65
S113095004C06F5F7F4F8F4F9F4F089557FD90588E
S1130960440F551F59F05F3F71F04795880F97FB6F
S1130970991F61F09F3F79F0879508951216130629
S11309801406551FF2CF4695F1DF08C01616170658
S11309901806991FF1CF869571056105089408958D
S11309A0E894BB2766277727CB0197F908950E941F
S11309B0EA040C949D040E948F0438F00E9496046B
S11309C020F0952311F00C9486040C948C041124CB
S11309D00C94D1040E94AE0470F3959FC1F3950F5B
S11309E050E0551F629FF001729FBB27F00DB11DAF
S11309F0639FAA27F00DB11DAA1F649F6627B00D3F
S1130A00A11D661F829F2227B00DA11D621F739F27
S1130A10B00DA11D621F839FA00D611D221F749F35
S1130A203327A00D611D231F849F600D211D822F7C
S1130A30762F6A2F11249F5750409AF0F1F08823A3
S1130A404AF0EE0FFF1FBB1F661F771F881F9150D0
S1130A505040A9F79E3F510580F00C9486040C94F5
S1130A60D1045F3FE4F3983ED4F386957795679578
S1130A70B795F795E7959F5FC1F7FE2B880F911DFA
S1130A809695879597F90895EE0FFF1F881F8BBFE2
S1110A900790F691E02D1BBE1994F894FFCF49
S1130A9E0008320864089608C808FA082C095E098A
S1130AAE8F09C009F109220A520A820AB10AE00A20
S1130ABE0F0B3D0B6B0B980BC50BF10B1C0C470C62
S1130ACE710C9A0CC30CEB0C120D390D5F0D830DCA
S1130ADEA70DCA0DED0D0E0E2E0E4E0E6C0E8A0EB9
S1130AEEA60EC10EDC0EF50E0D0F240F3A0F4F0F8E
S1130AFE630F760F870F980FA70FB50FC20FCD0F89
S1130B0ED80FE10FE90FF00FF50FF90FFD0FFE0FE0
S1130B1EFF0FFE0FFD0FF90FF50FF00FE90FE10FA9
S1130B2ED80FCD0FC20FB50FA70F980F870F760FE3
S1130B3E630F4F0F3A0F240F0D0FF50EDC0EC10E7F
S1130B4EA60E8A0E6C0E4E0E2E0E0E0EED0DCA0D48
S1130B5EA70D830D5F0D390D120DEB0CC30C9A0C02
S1130B6E710C470C1C0CF10BC50B980B6B0B3D0B4E
S1130B7E0F0BE00AB10A820A520A220AF109C009CD
S1130B8E8F095E092C09FA08C80896086408320809
S1130B9E0008CD079B07690737070507D306A1068B
S1130BAE70063F060E06DD05AD057D054E051F05D7
S1130BBEF004C204940467043A040E04E303B80375
S1130BCE8E0365033C031403ED02C602A0027C02ED
S1130BDE580235021202F101D101B10193017501DE
S1130BEE59013E0123010A01F200DB00C500B000E9
S1130BFE9C0089007800670058004A003D003200CE
S1130C0E27001E0016000F000A0006000200010055
S1130C1E00000100020006000A000F0016001E006C
S1130C2E270032003D004A00580067007800890012
S1130C3E9C00B000C500DB00F2000A0123013E0156
S1130C4E590175019301B101D101F101120235026D
S1130C5E58027C02A002C602ED0214033C03650393
S1130C6E8E03B803E3030E043A0467049404C20427
S1130C7EF0041F054E057D05AD05DD050E063F0688
S1130C8E7006A106D3060507370769079B07CD072C
S1130C9E2000400060008000A000C000E0000001C1
S1130CAE2001400160018001A001C001E0010002A9
S1130CBE2002400260028002A002C002E002000391
S1130CCE2003400360038003A003C003E003000479
S1130CDE2004400460048004A004C004E004000561
S1130CEE2005400560058005A005C005E005000649
S1130CFE2006400660068006A006C006E006000731
S1130D0E2007400760078007A007C007E007000818
S1130D1E1F083F085F087F089F08BF08DF08FF0809
S1130D2E1F093F095F097F099F09BF09DF09FF09F1
S1130D3E1F0A3F0A5F0A7F0A9F0ABF0ADF0AFF0AD9
S1130D4E1F0B3F0B5F0B7F0B9F0BBF0BDF0BFF0BC1
S1130D5E1F0C3F0C5F0C7F0C9F0CBF0CDF0CFF0CA9
S1130D6E1F0D3F0D5F0D7F0D9F0DBF0DDF0DFF0D91
S1130D7E1F0E3F0E5F0E7F0E9F0EBF0EDF0EFF0E79
S1130D8E1F0F3F0F5F0F7F0F9F0FBF0FDF0FFF0F61
S1130D9EDF0FBF0F9F0F7F0F5F0F3F0F1F0FFF0E52
S1130DAEDF0EBF0E9F0E7F0E5F0E3F0E1F0EFF0D4A
S1130DBEDF0DBF0D9F0D7F0D5F0D3F0D1F0DFF0C42
S1130DCEDF0CBF0C9F0C7F0C5F0C3F0C1F0CFF0B3A
S1130DDEDF0BBF0B9F0B7F0B5F0B3F0B1F0BFF0A32
S1130DEEDF0ABF0A9F0A7F0A5F0A3F0A1F0AFF092A
S1130DFEDF09BF099F097F095F093F091F09FF0822
S1130E0EDF08BF089F087F085F083F081F08000817
S1130E1EE007C007A0078007600740072007000708
S1130E2EE006C006A0068006600640062006000600
S1130E3EE005C005A00580056005400520050005F8
S1130E4EE004C004A00480046004400420040004F0
S1130E5EE003C003A00380036003400320030003E8
S1130E6EE002C002A00280026002400220020002E0
S1130E7EE001C001A00180016001400120010001D8
S1130E8EE000C000A00080006000400020000000D0
S1130E9E0008320864089608C808FA082C095E0986
S1130EAE8F09C009F109220A520A820AB10AE00A1C
S1130EBE0F0B3D0B6B0B980BC50BF10B1C0C470C5E
S1130ECE710C9A0CC30CEB0C120D390D5F0D830DC6
S1130EDEA70DCA0DED0D0E0E2E0E4E0E6C0E8A0EB5
S1130EEEA60EC10EDC0EF50E0D0F240F3A0F4F0F8A
S1130EFE630F760F870F980FA70FB50FC20FCD0F85
S1130F0ED80FE10FE90FF00FF50FF90FFD0FFE0FDC
S1130F1EFF0FFE0FFD0FF90FF50FF00FE90FE10FA5
S1130F2ED80FCD0FC20FB50FA70F980F870F760FDF
S1130F3E630F4F0F3A0F240F0D0FF50EDC0EC10E7B
S1130F4EA60E8A0E6C0E4E0E2E0E0E0EED0DCA0D44
S1130F5EA70D830D5F0D390D120DEB0CC30C9A0CFE
S1130F6E710C470C1C0CF10BC50B980B6B0B3D0B4A
S1130F7E0F0BE00AB10A820A520A220AF109C009C9
S1130F8E8F095E092C09FA08C80896086408320805
S1130F9E0008CD079B07690737070507D306A10687
S1130FAE70063F060E06DD05AD057D054E051F05D3
S1130FBEF004C204940467043A040E04E303B80371
S1130FCE8E0365033C031403ED02C602A0027C02E9
S1130FDE580235021202F101D101B10193017501DA
S1130FEE59013E0123010A01F200DB00C500B000E5
S1130FFE9C0089007800670058004A003D003200CA
S113100E27001E0016000F000A0006000200010051
S113101E00000100020006000A000F0016001E0068
S113102E270032003D004A0058006700780089000E
S113103E9C00B000C500DB00F2000A0123013E0152
S113104E590175019301B101D101F1011202350269
S113105E58027C02A002C602ED0214033C0365038F
S113106E8E03B803E3030E043A0467049404C20423
S113107EF0041F054E057D05AD05DD050E063F0684
S113108E7006A106D3060507370769079B07CD0728
S10B109E5CFFC3440101FFFFE4
S9030000FC
