S00C00004C6162362E73726563D3
S11300000C94FE000C9416010C9430010C9416010F
S11300100C9416010C9416010C9416010C94160100
S11300200C9416010C9416010C9416010C941601F0
S11300300C9416010C9416010C9416010C941601E0
S11300400C9416010C9416010C9416010C941601D0
S11300500C9416010C9416010C9416010C941601C0
S11300600C9416010C9416010C9416010C941601B0
S11300700C9416010C9416010C9416010C941601A0
S11300800C9416010C9416010C9416010C94160190
S11300900C9416010C9416010C9416010C94160180
S11300A00C9416010C9416010C9416010C94160170
S11300B00C9416010C9416010C9416010C94160160
S11300C00C9416010C9416010C9416010C94160150
S11300D00C9416010C9416010C9416010C94160140
S11300E00C9416010C9416010C9416010C94160130
S11300F00C9416010C9416010C9416010C94160120
S11301000C9416010C9416010C9416010C9416010F
S11301100C9416010C9416010C9416010C941601FF
S11301200C9416010C9416010C9416010C941601EF
S11301300C9416010C9416010C9416010C941601DF
S11301400C9416010C9416010C9416010C941601CF
S11301500C9416010C9416010C9416010C941601BF
S11301600C9416010C9416010C9416010C941601AF
S11301700C9416010C9416010C9416010C9416019F
S11301800C9416010C9416010C9416010C9416018F
S11301900C9416010C9416010C9416010C9416017F
S11301A00C9416010C9416010C9416010C9416016F
S11301B00C9416010C9416010C9416010C9416015F
S11301C00C9416010C9416010C9416010C9416014F
S11301D00C9416010C9416010C9416010C9416013F
S11301E00C9416010C9416010C9416010C9416012F
S11301F00C9416010C9416010C94160111241FBEC4
S1130200CFEFCDBFDFE3DEBF00E00CBF18BE19BEE9
S11302101ABE1BBE20E2A0E0B0E201C01D92A130D4
S1130220B207E1F70E9418010C94A7020C94000095
S1130230CF93DF93CDB7DEB70E947C020E94E0012A
S11302400E946A01809100208130E1F71092002021
S11302500E942A0289E496E022E0FC012083F2CF86
S11302601F920F9200903F000F92112400903800CB
S11302700F921092380000903A000F9210923A00B8
S113028000903B000F9210923B008F939F93EF934B
S1130290FF93CF93DF93CDB7DEB789E496E0FC01FB
S11302A0108281E0809300200000DF91CF91FF91C4
S11302B0EF919F918F910F9000923B000F900092CD
S11302C03A000F90009238000F9000923F000F9078
S11302D01F901895CF93DF93CDB7DEB780E496E0F7
S11302E020E4FC01228380E496E020E4FC012287E0
S11302F080E496E023E0FC01268B80E496E022E093
S1130300FC01218780EA90E022E0FC01228365E081
S113031082E10E949C0160EE88E10E949C0160E5FC
S113032081E10E949C0162E08DE00E949C0178942E
S11303300000DF91CF910895CF93DF931F921F9216
S1130340CDB7DEB789836A8380EA96E020E1FC01B9
S113035026838981882F90E08F7799270E94FC015A
S11303608A81882F90E00E94FC0180EA96E020E1D7
S1130370FC01258300000F900F90DF91CF91089529
S1130380CF93DF931F921F92CDB7DEB78A8380EAA3
S113039096E020E1FC0126838A818068882F90E022
S11303A00E94FC010E941302898380EA96E020E106
S11303B0FC01258389810F900F90DF91CF910895DF
S11303C0CF93DF93CDB7DEB780EA96E020EBFC0154
S11303D0258380EA96E020EBFC01218380EA96E005
S11303E020E4FC01228380EC9BE02CE5FC012083CB
S11303F00000DF91CF910895CF93DF931F92CDB783
S1130400DEB7898380EC9BE02981FC012383000013
S113041080EC9BE0FC0182818823D4F700000F90DC
S1130420DF91CF910895CF93DF93CDB7DEB780EC02
S11304309BE027E3FC012383000080EC9BE0FC01AC
S113044082818823D4F780EC9BE0FC018381DF91D7
S1130450CF910895CF93DF9300D000D0CDB7DEB70E
S113046082E20E94C001898383E20E94C0018A83E0
S113047084E20E94C0018B8385E20E94C0018C83C8
S113048086E20E94C0018D8387E20E94C0018E83B0
S113049089810E9461028A810E9461028B810E948B
S11304A061028C810E9461028D810E9461028E81B1
S11304B00E94610200002696CDBFDEBFDF91CF917E
S11304C00895CF93DF931F92CDB7DEB789830000E1
S11304D080EA99E0FC018181882F90E0807299275D
S11304E0892BB1F380EA99E02981FC012083000083
S11304F00F90DF91CF910895CF93DF93CDB7DEB7FF
S113050080E696E028E0FC01258380E696E028E07A
S1130510FC01218380E696E024E0FC01228380EA4A
S113052099E025E0FC01268380EA99E020EAFC01B9
S1130530278380EA99E023E0FC01258380EA99E09F
S113054028E1FC0124830000DF91CF910895F89401
S1050550FFCFD7
S9030000FC
