:100000000C94FE000C941C010C941C010C941C011B
:100010000C941C010C941C010C941C010C941C01EC
:100020000C941C010C941C010C941C010C941C01DC
:100030000C941C010C941C010C941C010C941C01CC
:100040000C941C010C941C010C941C010C941C01BC
:100050000C941C010C941C010C941C010C941C01AC
:100060000C941C010C941C010C941C010C941C019C
:100070000C941C010C941C010C941C010C941C018C
:100080000C941C010C941C010C941C010C941C017C
:100090000C941C010C941C010C941C010C941C016C
:1000A0000C941C010C941C010C941C010C941C015C
:1000B0000C941C010C941C010C941C010C941C014C
:1000C0000C941C010C941C010C941C010C941C013C
:1000D0000C941C010C941C010C941C010C941C012C
:1000E0000C941C010C941C010C941C010C941C011C
:1000F0000C941C010C941C010C941C010C941C010C
:100100000C941C010C941C010C941C010C941C01FB
:100110000C941C010C941C010C941C010C941C01EB
:100120000C941C010C941C010C941C010C941C01DB
:100130000C941C010C941C010C941C010C941C01CB
:100140000C941C010C941C010C941C010C941C01BB
:100150000C941C010C941C010C941C010C941C01AB
:100160000C941C010C941C010C941C010C941C019B
:100170000C941C010C941C010C941C010C941C018B
:100180000C941C010C941C010C941C010C941C017B
:100190000C941C010C941C010C941C010C941C016B
:1001A0000C941C010C941C010C941C010C941C015B
:1001B0000C941C010C941C010C941C010C941C014B
:1001C0000C941C010C941C010C941C010C941C013B
:1001D0000C941C010C941C010C941C010C941C012B
:1001E0000C941C010C941C010C941C010C941C011B
:1001F0000C941C010C941C010C941C0111241FBEB6
:10020000CFEFCDBFDFE3DEBF00E00CBF18BE19BEED
:100210001ABE1BBE10E2A0E0B0E2E2EFF2E000E0A6
:100220000BBF02C007900D92A031B107D9F71BBEDA
:100230000E941E010C9477010C940000CF93DF9371
:10024000CDB7DEB76597CDBFDEBF80E1E0E0F0E27D
:10025000DE01169601900D928A95E1F7CE01069681
:1002600089839A8380E097E38B839C8332C0898162
:100270009A81FC0180818D838D81882F90E080722E
:100280009927892B89F08D81880F8D838D81863404
:10029000D8F08B819C812D81FC0120838B819C81F6
:1002A00001968B839C8310C08D818D5F8D838D81A2
:1002B0008E3450F48B819C812D81FC0120838B81B5
:1002C0009C8101968B839C8389819A810196898385
:1002D0009A8389819A81FC018081882341F680E09C
:1002E00090E06596CDBFDEBFDF91CF910895F89481
:0202F000FFCF3E
:1002F200C922295B912A555823554A2155201E00AF
:00000001FF
